:10000000020995EF1FAC0670011E4C600A7D187C3A
:1000100055DCFEDDFC80EC22256400020A9CE56ACA
:10002000245EF8E6056A22785B300702785EE475A4
:10003000F0011204D40204702000EB7F2ED2008065
:1000400018EF540F2490D43440D4FF30040BEF2425
:10005000BFB41A0050032461FFE56B6002156B0505
:100060006EE56E7002056D30070D785BE475F0018A
:100070001204D4EF0204C2020C0F7403D2078003EF
:10008000E4C207F56A8B5B8A5C895DE4F56BF56D0C
:10009000F56EE56B60077F2012005980F5756CFFE7
:1000A000C201C200C202C203C205C206C2081200D7
:1000B00027FF700D3007057F0012006AAF6EAE6D2E
:1000C00022B4255FC2D5C204120027FF24D0B40A8F
:1000D00000501A75F00A786B30D50508B6FF010696
:1000E000C6A426F620D5047002D20380D924CFB44A
:1000F0001A00EF5004C2E5D20402026AD20180C69F
:10010000D20080C0D20280BCD2D580BAD20580B4E1
:100110007F201200592002077401B56B0040F112D4
:10012000001EFF120059020092D208D206809512DA
:10013000001EFB12001EFA12001EF94A4B700679CF
:100140003B7A037BFF20022EE56B602A7E008E82C5
:1001500075830012048960060EEE656C70F0C2D5DE
:10016000EBC0E0EAC0E0E9C0E0EE1202B1D0E0F995
:10017000D0E0FAD0E0FB120470FF60AAEBC0E0EA26
:10018000C0E0E9C0E0120059D0E02401F9D0E03429
:1001900000FAD0E0FBE56C0460DCD56CD980877B8D
:1001A000FF7A0279ADD202809C791080027908C270
:1001B00006C2088008D2D5790A8004790AC2D5E53A
:1001C0006C047002F56CE4FAFDFEFF12001EFC7B6D
:1001D0000820011312001EFD7B1030000A12001EC1
:1001E000FE12001EFF7B20EC3382D592D55013C344
:1001F000E43000069FFFE49EFEE42001039DFDE441
:100200009CFCE4CBF8C201EC700CCFCECDCCE82442
:10021000F8F870F38017C3EF33FFEE33FEED33FDD4
:10022000EC33FCEB33FB994002FB0FD8E9EB3001D8
:1002300005F8D0E0C448B201C0E00AEC4D4E4F785A
:10024000207B0070C2EAB56C0040BCC0E01202B373
:10025000D0F0D0E0200104C4C0E0C4B201C0F0126C
:100260000042D0F0D5F0EB0200921204E4012F53CB
:1002700001A95801004C00FC4201AD4F01B54401F9
:10028000B54901154301BB55019F46019F45019F9B
:1002900047035B5001042D01082E012B2B010C2379
:1002A00001292003442A00C448000001233F3F3FA6
:1002B00000790AA2D5200314300509B910020404FC
:1002C000B9080104A2D52006025001042002689258
:1002D00002B56B005034C0E07F203003197F30A29C
:1002E0000272067205500F12030AC202C206C2054C
:1002F000C2087F30800F300503E9C0E0120059309A
:100300000503D0E0F9D0E0B56BCC3005177F30B9EC
:10031000100C1200597F583004077F788003B90809
:10032000031200593002057F2D0200597F2020085A
:10033000F87F2B2006F322920280CF286E756C6C1A
:100340002900D20112001E3001F8C201786B30D5AD
:100350000108F60200C42D5043495812001E240320
:10036000B405004001E49003569312004A743A1217
:10037000004AD203756B040201A9E709F608DFFA07
:100380008046E709F208DFFA803E88828C83E7091D
:10039000F0A3DFFA8032E309F608DFFA8078E30998
:1003A000F208DFFA807088828C83E309F0A3DFFA19
:1003B000806489828A83E0A3F608DFFA8058898204
:1003C0008A83E0A3F208DFFA804C80D280FA80C6EC
:1003D00080D4806980F28033801080A680EA809A81
:1003E00080A880DA80E280CA803389828A83ECFA2E
:1003F000E493A3C8C582C8CCC583CCF0A3C8C5828A
:10040000C8CCC583CCDFE9DEE7800D89828A83E42E
:1004100093A3F608DFF9ECFAA9F0EDFB2289828AB2
:1004200083ECFAE0A3C8C582C8CCC583CCF0A3C8CE
:10043000C582C8CCC583CCDFEADEE880DB89828A4E
:1004400083E493A3F208DFF980CC88F0EF60010E1B
:100450004E60C388F0ED2402B4040050B9F582EB7D
:100460002402B4040050AF23234582239003CA73AF
:10047000BB010689828A83E0225002E722BBFE028A
:10048000E32289828A83E49322BB010CE58229F569
:1004900082E5833AF583E0225006E92582F8E622D8
:1004A000BBFE06E92582F8E222E58229F582E58392
:1004B0003AF583E49322A42582F582E5F03583F5AD
:1004C0008322BB010689828A83F0225002F722BB75
:1004D000FE01F322FAE6FB0808E6F925F0F618E635
:1004E000CA3AF622D083D082F8E493701274019352
:1004F000700DA3A393F8740193F5828883E4737459
:1005000002936860EFA3A3A380DF8F5E8D5F8B6093
:100510008A618962E4F564F565F566AB60AA61A954
:1005200062120470FF900CB175F023E5661204B6F8
:10053000E56575F023A42583F583E4936F600302DA
:10054000062C900001120489FF900CB275F023E58F
:10055000661204B6E56575F023A42583F583E4935C
:100560006F600302062CAD5FAF5E120C5AE4F564B7
:10057000C3E564941074809480504DE563900CB48E
:1005800075F023701EE5661204B6E56575F023A4C8
:100590002583F583E5822564F582E43583F583E4DC
:1005A00093801DE5661204B6E56575F023A42583E6
:1005B000F583E5822564F582E43583F583E493F4DD
:1005C000FF120CA8056480A8E55F04FDAF5E120C65
:1005D0005AE4F564C3E564941074809480504DE54A
:1005E00063900CC475F023701EE5661204B6E565D1
:1005F00075F023A42583F583E5822564F582E4352F
:1006000083F583E493801DE5661204B6E56575F015
:1006100023A42583F583E5822564F582E43583F5FB
:1006200083E493F4FF120CA8056480A80566E566D0
:1006300070020565C39411E5659400500302051B23
:1006400022850C0D120A218F0CAF0D7E00EF640184
:100650007007E50C7003750E01EF64024E7007E53C
:100660000C7003750E02E50D64037007E50C700352
:10067000750E03AF0D7E00EF64047007E50C700388
:10068000750E04EF64054E7007E50C7003750E05DA
:10069000E50D64067007E50C7003750E06AF0D7E60
:1006A00000EF64077007E50C7003750E07EF640830
:1006B0004E7007E50C7003750E08E50D64097007B0
:1006C000E50C7003750E09AF0D7E00EF640A70072C
:1006D000E50C7003750E0AEF640B4E7007E50C70A5
:1006E00003750E0BE50D640C7007E50C7003750EB9
:1006F0000CAF0D7E00EF640D7007E50C7003750EF6
:100700000DEF640E4E7007E50C7003750E0EE50DCF
:10071000640F7007E50C7003750E0FE50D64107023
:1007200007E50C7003750E10228F558D568B578A76
:10073000588959785B7C007D007BFF7A1479F47EC0
:10074000007F0312044AAB57AA58A95912047070CB
:100750000302080930E75C0559E559700205581491
:10076000F9120470F55B0559E559AA58700205584D
:1007700014F9120470F55C7B007A00795B855A638A
:10078000AD56AF5512050A74102555F555AB57AA4D
:1007900058A95912047030E70DC3E5559470748060
:1007A000948040A28059C3E5559478748094804029
:1007B00095804CAB570559E559AA58700205581455
:1007C000F9120470FB855A61AD56AF5512080A74D0
:1007D000082555F555AB57AA58A95912047030E7AA
:1007E00010C3E555947074809480500302074680CE
:1007F0000EC3E55594787480948050030207460533
:10080000560556E4F555020746228F5E8D5FE4F5E6
:1008100062F563EB24E0F562D3EF947F74809480FB
:100820004007E4F55E055F055FAD5FAF5E120C5AF1
:10083000E4F563C3E5639408748094805046E561F1
:1008400075F010701CE562A42563F582E435F0F5BF
:1008500083E5822404F582E583340FF583E49380F5
:100860001BE562A42563F582E435F0F583E5822477
:1008700004F582E583340FF583E493F4FF120CA8AA
:10088000056380AFE55F04FDAF5E120C5AE4F563CB
:10089000C3E5639408748094805046E56175F01058
:1008A000701CE562A42563F582E435F0F583E582EA
:1008B000240CF582E583340FF583E493801BE56215
:1008C000A42563F582E435F0F583E582240CF582F6
:1008D000E583340FF583E493F4FF120CA8056380DD
:1008E000AF22120C9CC291D2927F647E0012000350
:1008F000C2927F647E00120003D2927FAE120CA3DC
:100900007F02120CA37F10120CA37F40120CA37F56
:1009100081120CA37FCF120CA37FA1120CA37FC85E
:10092000120CA37FA6120CA37FA8120CA37F3F1268
:100930000CA37FD3120CA3E4FF120CA37FD5120CDF
:10094000A37F80120CA37FD9120CA37FF1120CA3FA
:100950007FDA120CA37F12120CA37FDB120CA37F91
:1009600040120CA37F20120CA37F02120CA37F8DD8
:10097000120CA37F14120CA37FA4120CA37FA61247
:100980000CA37FAF120CA37FAF120CA3120B72E467
:10099000FDFF020C5A787FE4F6D8FD75816E0209DE
:1009A000DC020BAEE493A3F8E493A34003F68001CA
:1009B000F208DFF48029E493A3F85407240CC8C399
:1009C00033C4540F4420C8834004F456800146F6D3
:1009D000DFE4800B0102040810204080900CADE49D
:1009E0007E019360BCA3FF543F30E509541FFEE431
:1009F00093A360010ECF54C025E060A840B8E493F3
:100A0000A3FAE493A3F8E493A3C8C582C8CAC58334
:100A1000CAF0A3C8C582C8CAC583CADFE9DEE780B9
:100A2000BEE4FFD280D281D282D283C28320C602AA
:100A30007F0D20C5027F0E20A7027F0F20A6027F18
:100A400010D280D281D282D283C28220C6027F0994
:100A500020C5027F0A20A7027F0B20A6027F0CD2AE
:100A600080D281D282D283C28120C6027F0520C576
:100A7000027F0620A7027F0720A6027F08D280D22D
:100A800081D282D283C28020C6027F0120C5027F2C
:100A90000220A7027F0320A6027F0422C0E0C0F04C
:100AA000C083C082C0D075D000C000C001C002C0E9
:100AB00003C004C005C006C007758A40758CA20536
:100AC00009E50970020508050BE50B7002050AC36C
:100AD000E509940AE50894004009750800750900C5
:100AE000120641C3E50B94F4E50A94014006750A29
:100AF00000750B00D007D006D005D004D003D0027B
:100B0000D001D000D0D0D082D083D0F0D0E0328FCE
:100B1000238D248B258A26892778377C007D007BCE
:100B2000FF7A1479F77E007F1912044A7550007518
:100B3000510075522885255585265685275785509D
:100B40005885515985525A7B007A007937120BE14A
:100B50008E538F547550007551007552007B007A8A
:100B6000007937E4F55AAD24AF23120729AE53AF0D
:100B70005422E4F523C3E523940874809480502D17
:100B8000E52324B0FF120CA37F02120CA37F1012E6
:100B90000CA3E4F524C3E524948074809480500968
:100BA000E4FF120CA8052480EC052380C822E4F59C
:100BB000221208E2120C7C752201E522600F7BFFF5
:100BC0007A007918F5287D017F01120B0FD2C07FC2
:100BD000E87E03120003C2C07FE87E031200038098
:100BE000D685555E85565F855760EBC558FBEAC5CF
:100BF00059FAE9C55AF97F097861120470F60809B3
:100C0000E970010ADFF4AB58AA59A95A02007AEF39
:100C1000B40A07740D120C1A740A309811A899B806
:100C2000130CC2983098FDA899C298B811F6309963
:100C3000FDC299F59922E4FEEEC394087480948075
:100C40005015C295EF30E704D2938002C293EF258E
:100C5000E0FFD2950E80E1C295228F67ED24B0FFB0
:100C6000120CA3E567240254F0C4540F4410FF1281
:100C70000CA3E5672402540FFF020CA3438E4053DC
:100C8000890F758B40758DA2C28FD28ED2ABD2AF39
:100C900022ED24FF92C7120C36D2C722C291D29302
:100CA000C29522E4FD020C917D01020C91010E001F
:100CB00000E5A4A940404242424242FE4242424232
:100CC0004240400080804020100C0300030C1020A4
:100CD00040808000E4B88080808080808080808038
:100CE0008080808080800000000000000000000004
:100CF00000000000000000E4BA8C000008080808AA
:100D0000080808080808080000001010101010104B
:100D100010101010101010101000E4B88900048496
:100D20008484848484848484848404000020202037
:100D300020202020202020202020202000E59B9B18
:100D400000FC040404FC040404FC040404FC00008F
:100D5000007F28242320202020212222227F00001F
:100D6000E4BA940002424242C27E42424242C2027D
:100D700002000040404040784740404040407F40B3
:100D8000404000E585AD20202020202021222C207D
:100D9000202020202000004020100C030000000133
:100DA000020418600000E5B9B4002018C7444444A8
:100DB00044FC4444444404000004040407040404C0
:100DC00004FF04040404040400E69C88000000FE00
:100DD0002222222222222222FE0000008040300F06
:100DE00002020202020242827F000000E697A50092
:100DF0000000FE82828282828282FE000000000069
:100E00000000FF40404040404040FF00000000E63E
:100E100097B600FC848484FC001010101010FF10A2
:100E20001000003F1010103F0000010640807F00BE
:100E30000000E58886804020908886808080838CB2
:100E40001020408000008040201807004080403F74
:100E50000000000000E7A7922424A4FE232200C083
:100E60003800FF0008106000080601FF01068180BD
:100E7000404027100C030000E6989F000000BE2AA7
:100E80002A2AEA2A2A2A3E00000000004442494950
:100E900049497F4949494941400000E69C9F000477
:100EA000FF242424FF0400FE222222FE00008848A2
:100EB0002F090919AF48300F0242827F0000E6B8BF
:100EC000A91060028C0000FE9292929292FE0000A5
:100ED0000004047E01407E42427E427E42427E40C9
:100EE00000E6B9BF1060028C00FE9292929292923C
:100EF000FE00000004047E014448507F40407F50C3
:100F00004844400000000000000000000000000015
:100F100000000000000000F80000000000000033A6
:100F20003000000000100C06100C0600000000004D
:100F30000000000040C07840C0784000043F040436
:100F40003F040400007088FC08300000001820FFF7
:100F5000211E0000F008F000E018000000211C0332
:100F60001E211E0000F00888700000001E212324AE
:100F70001927211010160E000000000000000000CC
:100F800000000000000000E018040200000000075C
:100F90001820400000020418E00000000040201863
:100FA00007000000404080F0804040000202010F36
:100FB00001020200000000F0000000000101011F1A
:100FC00001010100000000000000000080B070007E
:100FD000000000000000000000000000000101010E
:100FE000010101010000000000000000003030009D
:100FF0000000000000000000806018040060180677
:101000000100000000E010080810E000000F1020B0
:1010100020100F00001010F8000000000020203FFA
:101020002020000000700808088870000030282484
:101030002221300000300888884830000018202025
:1010400020110E000000C02010F80000000704244A
:10105000243F240000F8088888080800001921208F
:1010600020110E0000E0108888180000000F1120E9
:1010700020110E0000380808C83808000000003FA2
:10108000000000000070880808887000001C222101
:1010900021221C0000E010080810E00000003122AE
:1010A00022110F00000000C0C0000000000000304E
:1010B00030000000000000800000000000008060A0
:1010C0000000000000008040201008000001020421
:1010D0000810200040404040404040000404040408
:1010E00004040400000810204080000000201008C4
:1010F00004020100007048080808F00000000030F9
:1011000036010000C030C828E810E0000718272486
:1011100023140B000000C038E0000000203C230234
:101120000227382008F8888888700000203F202097
:1011300020110E00C03008080808380007182020C9
:101140002010080008F808080810E000203F2020C0
:1011500020100F0008F88888E8081000203F2020A1
:101160002320180008F88888E8081000203F200095
:1011700003000000C03008080838000007182020CD
:10118000221E020008F808000008F808203F21018C
:1011900001213F20000808F8080800000020203F37
:1011A0002020000000000808F8080800C0808080A7
:1011B0007F00000008F888C028180800203F2001A0
:1011C0002638200008F8080000000000203F2020FA
:1011D0002020300008F8F800F8F80800203F003F11
:1011E000003F200008F830C00008F808203F200029
:1011F00007183F00E01008080810E0000F1020203A
:1012000020100F0008F808080808F000203F21010E
:1012100001010000E01008080810E0000F18242465
:1012200038504F0008F8888888887000203F2000D8
:10123000030C30200070880808083800003820218E
:1012400021221C00180808F8080818000000203F98
:101250002000000008F808000008F808001F2020FF
:1012600020201F000878880000C8380800000738D0
:101270000E010000F80800F80008F800033C070021
:10128000073C0300081868808068180820302C0389
:10129000032C30200838C800C83808000000203F60
:1012A0002000000010080808C8380800203826214F
:1012B00020201800000000FE020202000000007F53
:1012C00040404000000C30C0000000000000000161
:1012D0000638C00000020202FE000000004040404C
:1012E0007F00000000000402020204000000000071
:1012F00000000000000000000000000080808080EE
:1013000080808080000202040000000000000000D5
:10131000000000000000808080800000001924226E
:1013200022223F2008F8008080000000003F1120AA
:1013300020110E000000008080800000000E1120AF
:1013400020201100000000808088F800000E11208D
:1013500020103F200000808080800000001F22229B
:1013600022221300008080F0888888180020203F07
:10137000202000000000808080808000006B94941A
:101380009493600008F8008080800000203F2100D6
:1013900000203F2000809898000000000020203F9F
:1013A00020200000000000809898000000C080808D
:1013B000807F000008F8000080808000203F240229
:1013C0002D302000000808F8000000000020203F19
:1013D000202000008080808080808000203F2000CE
:1013E0003F20003F8080008080800000203F21005F
:1013F00000203F200000808080800000001F20200F
:1014000020201F00808000808000000080FFA1203D
:1014100020110E000000008080808000000E11204E
:1014200020A0FF80808080008080800020203F21DD
:101430002000010000008080808080000033242490
:1014400024241900008080E0808000000000001F3C
:10145000202000008080000000808000001F2020ED
:1014600020103F20808080000080808000010E30AE
:101470000806010080800080008080800F300C030F
:101480000C300F0000808000808080000020312E12
:101490000E312000808080000080808080818E70EE
:1014A0001806010000808080808080000021302CA0
:1014B0002221300000000000807C020200000000B9
:1014C000003F404000000000FF000000000000005E
:1014D000FF0000000002027C800000000040403F4E
:1014E00000000000000601010202040400000000E8
:1014F00000000000000000000000000000000000EC
:1015000000000000000000000000000000000000DB
:00000001FF
