:10000000020995EF1FAC0670011E4C600A7D187C3A
:0800100055DCFEDDFC80EC2252
:10001B00020A9CE56A245EF8E6056A22785B3007E3
:10002B0002785EE475F0011204D40204702000EB38
:10003B007F2ED2008018EF540F2490D43440D4FF7D
:10004B0030040BEF24BFB41A0050032461FFE56B9F
:10005B006002156B056EE56E7002056D30070D784D
:10006B005BE475F0011204D4EF0204C2020C1374AA
:10007B0003D2078003E4C207F56A8B5B8A5C895D58
:10008B00E4F56BF56DF56EE56B60077F201200599B
:10009B0080F5756CFFC201C200C202C203C205C269
:1000AB0006C208120027FF700D3007057F001200F3
:1000BB006AAF6EAE6D22B4255FC2D5C204120027A3
:1000CB00FF24D0B40A00501A75F00A786B30D505AE
:1000DB0008B6FF0106C6A426F620D5047002D2038B
:1000EB0080D924CFB41A00EF5004C2E5D204020227
:1000FB006AD20180C6D20080C0D20280BCD2D58029
:10010B00BAD20580B47F201200592002077401B5C2
:10011B006B0040F112001EFF120059020092D20830
:10012B00D206809512001EFB12001EFA12001EF959
:10013B004A4B7006793B7A037BFF20022EE56B60FE
:10014B002A7E008E8275830012048960060EEE658E
:10015B006C70F0C2D5EBC0E0EAC0E0E9C0E0EE1293
:10016B0002B1D0E0F9D0E0FAD0E0FB120470FF60EE
:10017B00AAEBC0E0EAC0E0E9C0E0120059D0E024ED
:10018B0001F9D0E03400FAD0E0FBE56C0460DCD57B
:10019B006CD980877BFF7A0279ADD202809C791073
:1001AB0080027908C206C2088008D2D5790A800479
:1001BB00790AC2D5E56C047002F56CE4FAFDFEFF1A
:1001CB0012001EFC7B0820011312001EFD7B103059
:1001DB00000A12001EFE12001EFF7B20EC3382D59C
:1001EB0092D55013C3E43000069FFFE49EFEE4203B
:1001FB0001039DFDE49CFCE4CBF8C201EC700CCF39
:10020B00CECDCCE824F8F870F38017C3EF33FFEEB4
:10021B0033FEED33FDEC33FCEB33FB994002FB0F6C
:10022B00D8E9EB300105F8D0E0C448B201C0E00AD0
:10023B00EC4D4E4F78207B0070C2EAB56C0040BC91
:10024B00C0E01202B3D0F0D0E0200104C4C0E0C47F
:10025B00B201C0F0120042D0F0D5F0EB02009212C6
:10026B0004E4012F5301A95801004C00FC4201ADDD
:10027B004F01B54401B54901154301BB55019F46DB
:10028B00019F45019F47035B5001042D01082E017F
:10029B002B2B010C2301292003442A00C448000006
:1002AB0001233F3F3F00790AA2D5200314300509F3
:1002BB00B910020404B9080104A2D52006025001AA
:1002CB00042002689202B56B005034C0E07F2030EE
:1002DB0003197F30A20272067205500F12030AC275
:1002EB0002C206C205C2087F30800F300503E9C089
:1002FB00E0120059300503D0E0F9D0E0B56BCC30FB
:10030B0005177F30B9100C1200597F583004077F46
:10031B00788003B908031200593002057F2D0200C3
:10032B00597F202008F87F2B2006F322920280CFE2
:10033B00286E756C6C2900D20112001E3001F8C2B8
:10034B0001786B30D50108F60200C42D5043495893
:10035B0012001E2403B405004001E49003569312CF
:10036B00004A743A12004AD203756B040201A9E7E2
:10037B0009F608DFFA8046E709F208DFFA803E88C3
:10038B00828C83E709F0A3DFFA8032E309F608DFFA
:10039B00FA8078E309F208DFFA807088828C83E3B5
:1003AB0009F0A3DFFA806489828A83E0A3F608DF71
:1003BB00FA805889828A83E0A3F208DFFA804C80A6
:1003CB00D280FA80C680D4806980F280338010801E
:1003DB00A680EA809A80A880DA80E280CA8033897E
:1003EB00828A83ECFAE493A3C8C582C8CCC583CCBC
:1003FB00F0A3C8C582C8CCC583CCDFE9DEE7800D8E
:10040B0089828A83E493A3F608DFF9ECFAA9F0ED6D
:10041B00FB2289828A83ECFAE0A3C8C582C8CCC5CB
:10042B0083CCF0A3C8C582C8CCC583CCDFEADEE899
:10043B0080DB89828A83E493A3F208DFF980CC887E
:10044B00F0EF60010E4E60C388F0ED2402B404009F
:10045B0050B9F582EB2402B4040050AF232345823C
:10046B00239003CA73BB010689828A83E022500260
:10047B00E722BBFE02E32289828A83E49322BB013B
:10048B000CE58229F582E5833AF583E0225006E9F3
:10049B002582F8E622BBFE06E92582F8E222E582F8
:1004AB0029F582E5833AF583E49322A42582F5822C
:1004BB00E5F03583F58322BB010689828A83F0221E
:1004CB005002F722BBFE01F322FAE6FB0808E6F91D
:1004DB0025F0F618E6CA3AF622D083D082F8E493D8
:1004EB007012740193700DA3A393F8740193F582AA
:1004FB008883E4737402936860EFA3A3A380DF8FF8
:10050B005E8D5F8B608A618962E4F564F565F566E3
:10051B00AB60AA61A962120470FF900CBB75F0234B
:10052B00E5661204B6E56575F023A42583F583E42F
:10053B00936F600302062C900001120489FF900C4C
:10054B00BC75F023E5661204B6E56575F023A425AA
:10055B0083F583E4936F600302062CAD5FAF5E12ED
:10056B000C5EE4F564C3E564941074809480504D84
:10057B00E563900CBE75F023701EE5661204B6E5BC
:10058B006575F023A42583F583E5822564F582E464
:10059B003583F583E493801DE5661204B6E5657536
:1005AB00F023A42583F583E5822564F582E4358366
:1005BB00F583E493F4FF120CB2056480A8E55F04A5
:1005CB00FDAF5E120C5EE4F564C3E56494107480B9
:1005DB009480504DE563900CCE75F023701EE5664C
:1005EB001204B6E56575F023A42583F583E5822512
:1005FB0064F582E43583F583E493801DE56612048C
:10060B00B6E56575F023A42583F583E5822564F5AE
:10061B0082E43583F583E493F4FF120CB205648016
:10062B00A80566E56670020565C39411E56594003F
:10063B00500302051B22850C0D120A218F0CAF0DE6
:10064B007E00EF64017007E50C7003750E01EF641B
:10065B00024E7007E50C7003750E02E50D64037016
:10066B0007E50C7003750E03AF0D7E00EF6404708D
:10067B0007E50C7003750E04EF64054E7007E50C6F
:10068B007003750E05E50D64067007E50C700375B8
:10069B000E06AF0D7E00EF64077007E50C70037557
:1006AB000E07EF64084E7007E50C7003750E08E536
:1006BB000D64097007E50C7003750E09AF0D7E0014
:1006CB00EF640A7007E50C7003750E0AEF640B4EAE
:1006DB007007E50C7003750E0BE50D640C7007E5E8
:1006EB000C7003750E0CAF0D7E00EF640D7007E5FB
:1006FB000C7003750E0DEF640E4E7007E50C700356
:10070B00750E0EE50D640F7007E50C7003750E0F7B
:10071B00E50D64107007E50C7003750E10228F55F4
:10072B008D568B578A588959785B7C007D007BFFEF
:10073B007A1479FE7E007F0312044AAB57AA58A99C
:10074B0059120470700302080930E75C0559E5592A
:10075B007002055814F9120470F55B0559E559AA96
:10076B00587002055814F9120470F55C7B007A007E
:10077B00795B855A63AD56AF5512050A7410255532
:10078B00F555AB57AA58A95912047030E70DC3E5BC
:10079B005594707480948040A28059C3E555947829
:1007AB00748094804095804CAB570559E559AA58F5
:1007BB007002055814F9120470FB855A61AD56AFDF
:1007CB005512080A74082555F555AB57AA58A9595F
:1007DB0012047030E710C3E5559470748094805008
:1007EB0003020746800EC3E55594787480948050BD
:1007FB000302074605560556E4F555020746228FB8
:10080B005E8D5FE4F562F563EB24E0F562D3EF9464
:10081B007F748094804007E4F55E055F055FAD5FF4
:10082B00AF5E120C5EE4F563C3E5639408748094C9
:10083B00805046E56175F010701CE562A42563F5E8
:10084B0082E435F0F583E582240EF582E583340FDF
:10085B00F583E493801BE562A42563F582E435F010
:10086B00F583E582240EF582E583340FF583E4935B
:10087B00F4FF120CB2056380AFE55F04FDAF5E12AF
:10088B000C5EE4F563C3E563940874809480504672
:10089B00E56175F010701CE562A42563F582E43503
:1008AB00F0F583E5822416F582E583340FF583E4B6
:1008BB0093801BE562A42563F582E435F0F583E5AF
:1008CB00822416F582E583340FF583E493F4FF124B
:1008DB000CB2056380AF22120CA0C291D2927F643E
:1008EB007E00120003C2927F647E00120003D2923C
:1008FB007FAE120CAD7F02120CAD7F10120CAD7FD0
:10090B0040120CAD7F81120CAD7FCF120CAD7FA1CD
:10091B00120CAD7FC8120CAD7FA6120CAD7FA812C6
:10092B000CAD7F3F120CAD7FD3120CADE4FF120C5C
:10093B00AD7FD5120CAD7F80120CAD7FD9120CADF3
:10094B007FF1120CAD7FDA120CAD7F12120CAD7F62
:10095B00DB120CAD7F40120CAD7F20120CAD7F0271
:10096B00120CAD7F8D120CAD7F14120CAD7FA41247
:10097B000CAD7FA6120CAD7FAF120CAD7FAF120C7E
:10098B00AD120B72E4FDFF020C5E787FE4F6D8FD2E
:10099B0075816E0209DC020BAEE493A3F8E493A31A
:1009AB004003F68001F208DFF48029E493A3F854A6
:1009BB0007240CC8C333C4540F4420C8834004F429
:1009CB0056800146F6DFE4800B010204081020403C
:1009DB0080900CB7E47E019360BCA3FF543F30E5DD
:1009EB0009541FFEE493A360010ECF54C025E060B1
:1009FB00A840B8E493A3FAE493A3F8E493A3C8C57F
:100A0B0082C8CAC583CAF0A3C8C582C8CAC583CA6F
:100A1B00DFE9DEE780BEE4FFD280D281D282D283CF
:100A2B00C28320C6027F0D20C5027F0E20A7027F46
:100A3B000F20A6027F10D280D281D282D283C282B3
:100A4B0020C6027F0920C5027F0A20A7027F0B2048
:100A5B00A6027F0CD280D281D282D283C28120C6E1
:100A6B00027F0520C5027F0620A7027F0720A60272
:100A7B007F08D280D281D282D283C28020C6027FED
:100A8B000120C5027F0220A7027F0320A6027F045C
:100A9B0022C0E0C0F0C083C082C0D075D000C000BF
:100AAB00C001C002C003C004C005C006C007758AE0
:100ABB0040758CA20509E50970020508050BE50BCD
:100ACB007002050AC3E509940AE50894004009750C
:100ADB000800750900120641C3E50B94F4E50A946E
:100AEB00014006750A00750B00D007D006D005D063
:100AFB0004D003D002D001D000D0D0D082D083D08C
:100B0B00F0D0E0328F238D248B258A2689277837E6
:100B1B007C007D007BFF7A1579017E007F19120422
:100B2B004A755000755100755228852555852656F6
:100B3B0085275785505885515985525A7B007A0025
:100B4B007937120BE58E538F547550007551007524
:100B5B0052007B007A007937E4F55AAD24AF2312AB
:100B6B000729AE53AF5422E4F523C3E5239408744D
:100B7B00809480502DE52324B0FF120CAD7F021220
:100B8B000CAD7F10120CADE4F524C3E524948074F6
:100B9B008094805009E4FF120CB2052480EC0523ED
:100BAB0080C822E4F5221208E2120C80120CA78FE7
:100BBB0022E5226011B2C07BFF7A15791AF5287DE8
:100BCB00017F01120B0FD2C07FE87E03120003C21C
:100BDB00C07FE87E0312000380D285555E85565F89
:100BEB00855760EBC558FBEAC559FAE9C55AF97F39
:100BFB00097861120470F60809E970010ADFF4AB99
:100C0B0058AA59A95A02007AEFB40A07740D120CAC
:100C1B001E740A309811A899B8130CC2983098FD1D
:100C2B00A899C298B811F63099FDC299F59922E4AA
:100C3B00FEEEC39408748094805015C295EF30E794
:100C4B0004D2938002C293EF25E0FFD2950E80E190
:100C5B00C295228F67ED24B0FF120CADE56724021D
:100C6B0054F0C4540F4410FF120CADE5672402542A
:100C7B000FFF020CAD438E4053890F758B40758D62
:100C8B00A2C28FD28ED2ABD2AF22ED24FF92C7126B
:100C9B000C3AD2C722C291D293C29522E4AF0EF581
:100CAB000E22E4FD020C957D01020C95010E000055
:100CBB00E5A4A940404242424242FE4242424242E5
:100CCB0040400080804020100C0300030C1020409B
:100CDB00808000E4B88080808080808080808080ED
:100CEB008080808080000000000000000000000079
:100CFB00000000000000E4BA8C0000080808080897
:100D0B000808080808080000001010101010101038
:100D1B00101010101010101000E4B8890004848417
:100D2B008484848484848484840400002020202090
:100D3B00202020202020202020202000E59B9B002D
:100D4B00FC040404FC040404FC040404FC00000084
:100D5B007F28242320202020212222227F0000E430
:100D6B00BA940002424242C27E42424242C2020254
:100D7B00000040404040784740404040407F40406A
:100D8B004000E585AD20202020202021222C202092
:100D9B002020202000004020100C03000000010246
:100DAB000418600000E5B9B4002018C7444444445B
:100DBB00FC444444440400000404040704040404F5
:100DCB00FF04040404040400E69C88000000FE22D7
:100DDB0022222222222222FE0000008040300F021B
:100DEB00020202020242827F000000E697A5000089
:100DFB0000FE82828282828282FE0000000000005E
:100E0B0000FF40404040404040FF00000000E6979C
:100E1B00B600FC848484FC001010101010FF10101E
:100E2B0000003F1010103F0000010640807F0000C3
:100E3B0000E58886804020908886808080838C1097
:100E4B0020408000008040201807004080403F0079
:100E5B0000000000E7A7922424A4FE232200C03840
:100E6B0000FF0008106000080601FF0106818040AA
:100E7B004027100C030000E6989F000000BE2A2AB2
:100E8B002AEA2A2A2A3E0000000000444249494926
:100E9B00497F4949494941400000E69C9F0004FFB6
:100EAB00242424FF0400FE222222FE000088482F67
:100EBB00090919AF48300F0242827F0000E6B8A93A
:100ECB001060028C0000FE9292929292FE00000043
:100EDB0004047E01407E42427E427E42427E4000BE
:100EEB00E6B9BF1060028C00FE929292929292FE33
:100EFB0000000004047E014448507F40407F50486E
:100F0B004440000000000000000000000000000052
:100F1B00000000000000F80000000000000033306B
:100F2B0000000000100C06100C0600000000000072
:100F3B0000000040C07840C0784000043F04043FEC
:100F4B00040400007088FC08300000001820FF210A
:100F5B001E0000F008F000E018000000211C031E2A
:100F6B00211E0000F00888700000001E21232419A8
:100F7B0027211010160E00000000000000000000DA
:100F8B00000000000000E018040200000000071839
:100F9B0020400000020418E0000000004020180769
:100FAB00000000404080F0804040000202010F0131
:100FBB00020200000000F0000000000101011F010F
:100FCB00010100000000000000000080B070000074
:100FDB000000000000000000000000000101010102
:100FEB000101010000000000000000003030000093
:100FFB00000000000000008060180400601806016B
:10100B0000000000E010080810E000000F10202086
:10101B00100F00001010F8000000000020203F20EF
:10102B002000000070080808887000003028242277
:10103B00213000003008888848300000182020201C
:10104B00110E000000C02010F8000000070424243B
:10105B003F240000F8088888080800001921202088
:10106B00110E0000E0108888180000000F112020DE
:10107B00110E0000380808C83808000000003F00B7
:10108B000000000070880808887000001C222121D5
:10109B00221C0000E010080810E0000000312222A2
:1010AB00110F00000000C0C0000000000000303035
:1010BB0000000000000080000000000000806000C5
:1010CB00000000000080402010080000010204080E
:1010DB001020004040404040404000040404040401
:1010EB0004040000081020408000000020100804B9
:1010FB00020100007048080808F0000000003036BC
:10110B00010000C030C828E810E00007182724238E
:10111B00140B000000C038E0000000203C2302024A
:10112B0027382008F8888888700000203F2020206E
:10113B00110E00C0300808080838000718202020BE
:10114B0010080008F808080810E000203F202020B5
:10115B00100F0008F88888E8081000203F20202393
:10116B0020180008F88888E8081000203F200003AA
:10117B00000000C0300808083800000718202022A3
:10118B001E020008F808000008F808203F210101A2
:10119B00213F20000808F8080800000020203F200D
:1011AB0020000000000808F8080800C08080807F3D
:1011BB0000000008F888C028180800203F200126EE
:1011CB0038200008F8080000000000203F202020F5
:1011DB0020300008F8F800F8F80800203F003F0026
:1011EB003F200008F830C00008F808203F20000717
:1011FB00183F00E01008080810E0000F1020202016
:10120B00100F0008F808080808F000203F21010122
:10121B00010000E01008080810E0000F1824243823
:10122B00504F0008F8888888887000203F20000302
:10123B000C30200070880808083800003820212165
:10124B00221C00180808F8080818000000203F208E
:10125B0000000008F808000008F808001F202020F4
:10126B00201F000878880000C83808000007380ED7
:10127B00010000F80800F80008F800033C0700071D
:10128B003C0300081868808068180820302C030382
:10129B002C30200838C800C83808000000203F2038
:1012AB0000000010080808C8380800203826212044
:1012BB00201800000000FE020202000000007F4028
:1012CB00404000000C30C000000000000000010690
:1012DB0038C00000020202FE000000004040407FC8
:1012EB0000000000000402020204000000000000E5
:1012FB000000000000000000000000808080808063
:10130B00808080000202040000000000000000004A
:10131B000000000000808080800000001924222241
:10132B00223F2008F8008080000000003F112020A1
:10133B00110E000000008080800000000E112020A4
:10134B00201100000000808088F800000E11202082
:10135B00103F200000808080800000001F2222228E
:10136B00221300008080F0888888180020203F20FE
:10137B002000000000808080808000006B9494949B
:10138B0093600008F8008080800000203F2100005F
:10139B00203F2000809898000000000020203F2074
:1013AB00200000000000809898000000C080808022
:1013BB007F000008F8000080808000203F24022D71
:1013CB00302000000808F8000000000020203F201B
:1013DB002000008080808080808000203F20003FA4
:1013EB0020003F8080008080800000203F21000093
:1013FB00203F200000808080800000001F202020E4
:10140B00201F00808000808000000080FFA1202032
:10141B00110E000000008080808000000E11202043
:10142B00A0FF80808080008080800020203F2120D2
:10143B000001000000808080808000003324242481
:10144B00241900008080E0808000000000001F2035
:10145B002000008080000000808000001F202020E2
:10146B00103F20808080000080808000010E3008BB
:10147B0006010080800080008080800F300C030C00
:10148B00300F0000808000808080000020312E0E05
:10149B00312000808080000080808080818E7018D9
:1014AB0006010000808080808080000021302C228B
:1014BB0021300000000000807C02020000000000D0
:1014CB003F404000000000FF00000000000000FF54
:1014DB000000000002027C800000000040403F0042
:1014EB0000000000060101020204040000000000DD
:1014FB0000000000000000000000000000000000E1
:10150B0000000000000000000000000000000025AB
:03151B0062640007
:00000001FF
