:10000000020A47EF1FAC0670011E4C600A7D187C87
:0800100055DCFEDDFC80EC2252
:10001B00020B4EE57B246FF8E6057B22786C3007EC
:10002B0002786FE475F0011204D40204702000EB27
:10003B007F2ED2008018EF540F2490D43440D4FF7D
:10004B0030040BEF24BFB41A0050032461FFE57C8E
:10005B006002157C057FE57F7002057E30070D7809
:10006B006CE475F0011204D4EF0204B6020CF974BF
:10007B0003D2078003E4C207F57B8B6C8A6D896E14
:10008B00E4F57CF57EF57FE57C60077F2012005957
:10009B0080F5757DFFC201C200C202C203C205C258
:1000AB0006C208120027FF700D3007057F001200F3
:1000BB006AAF7FAE7E22B4255FC2D5C20412002781
:1000CB00FF24D0B40A00501A75F00A787C30D5059D
:1000DB0008B6FF0106C6A426F620D5047002D2038B
:1000EB0080D924CFB41A00EF5004C2E5D204020227
:1000FB006AD20180C6D20080C0D20280BCD2D58029
:10010B00BAD20580B47F201200592002077401B5C2
:10011B007C0040F112001EFF120059020092D2081F
:10012B00D206809512001EFB12001EFA12001EF959
:10013B004A4B7006793B7A037BFF20022EE57C60ED
:10014B002A7E008E8275830012048960060EEE658E
:10015B007D70F0C2D5EBC0E0EAC0E0E9C0E0EE1282
:10016B0002B1D0E0F9D0E0FAD0E0FB120470FF60EE
:10017B00AAEBC0E0EAC0E0E9C0E0120059D0E024ED
:10018B0001F9D0E03400FAD0E0FBE57D0460DCD56A
:10019B007DD980877BFF7A0279ADD202809C791062
:1001AB0080027908C206C2088008D2D5790A800479
:1001BB00790AC2D5E57D047002F57DE4FAFDFEFFF8
:1001CB0012001EFC7B0820011312001EFD7B103059
:1001DB00000A12001EFE12001EFF7B20EC3382D59C
:1001EB0092D55013C3E43000069FFFE49EFEE4203B
:1001FB0001039DFDE49CFCE4CBF8C201EC700CCF39
:10020B00CECDCCE824F8F870F38017C3EF33FFEEB4
:10021B0033FEED33FDEC33FCEB33FB994002FB0F6C
:10022B00D8E9EB300105F8D0E0C448B201C0E00AD0
:10023B00EC4D4E4F78207B0070C2EAB57D0040BC80
:10024B00C0E01202B3D0F0D0E0200104C4C0E0C47F
:10025B00B201C0F0120042D0F0D5F0EB02009212C6
:10026B0004E4012F5301A95801004C00FC4201ADDD
:10027B004F01B54401B54901154301BB55019F46DB
:10028B00019F45019F47035B5001042D01082E017F
:10029B002B2B010C2301292003442A00C448000006
:1002AB0001233F3F3F00790AA2D5200314300509F3
:1002BB00B910020404B9080104A2D52006025001AA
:1002CB00042002689202B57C005034C0E07F2030DD
:1002DB0003197F30A20272067205500F12030AC275
:1002EB0002C206C205C2087F30800F300503E9C089
:1002FB00E0120059300503D0E0F9D0E0B57CCC30EA
:10030B0005177F30B9100C1200597F583004077F46
:10031B00788003B908031200593002057F2D0200C3
:10032B00597F202008F87F2B2006F322920280CFE2
:10033B00286E756C6C2900D20112001E3001F8C2B8
:10034B0001787C30D50108F60200C42D5043495882
:10035B0012001E2403B405004001E49003569312CF
:10036B00004A743A12004AD203757C040201A9E7D1
:10037B0009F608DFFA8046E709F208DFFA803E88C3
:10038B00828C83E709F0A3DFFA8032E309F608DFFA
:10039B00FA8078E309F208DFFA807088828C83E3B5
:1003AB0009F0A3DFFA806489828A83E0A3F608DF71
:1003BB00FA805889828A83E0A3F208DFFA804C80A6
:1003CB00D280FA80C680D4806980F280338010801E
:1003DB00A680EA809A80A880DA80E280CA8033897E
:1003EB00828A83ECFAE493A3C8C582C8CCC583CCBC
:1003FB00F0A3C8C582C8CCC583CCDFE9DEE7800D8E
:10040B0089828A83E493A3F608DFF9ECFAA9F0ED6D
:10041B00FB2289828A83ECFAE0A3C8C582C8CCC5CB
:10042B0083CCF0A3C8C582C8CCC583CCDFEADEE899
:10043B0080DB89828A83E493A3F208DFF980CC887E
:10044B00F0EF60010E4E60C388F0ED2402B404009F
:10045B0050B9F582EB2402B4040050AF232345823C
:10046B00239003CA73BB010689828A83E022500260
:10047B00E722BBFE02E32289828A83E49322BB013B
:10048B000CE58229F582E5833AF583E0225006E9F3
:10049B002582F8E622BBFE06E92582F8E222E582F8
:1004AB0029F582E5833AF583E49322BB0106898221
:1004BB008A83F0225002F722BBFE01F322A425828D
:1004CB00F582E5F03583F58322FAE6FB0808E6F9B9
:1004DB0025F0F618E6CA3AF622D083D082F8E493D8
:1004EB007012740193700DA3A393F8740193F582AA
:1004FB008883E4737402936860EFA3A3A380DF8FF8
:10050B006F8D708B718A728973E4F575F576F5775B
:10051B00AB71AA72A973120470FF900DAF75F02323
:10052B00E5771204C8E57675F023A42583F583E4FB
:10053B00936F600302062C900001120489FF900D4B
:10054B00B075F023E5771204C8E57675F023A42582
:10055B0083F583E4936F600302062CAD70AF6F12CB
:10056B000D44E4F575C3E575941074809480504D7B
:10057B00E574900DB275F023701EE5771204C8E593
:10058B007675F023A42583F583E5822575F582E442
:10059B003583F583E493801DE5771204C8E5767502
:1005AB00F023A42583F583E5822575F582E4358355
:1005BB00F583E493F4FF120DA5057580A8E570048F
:1005CB00FDAF6F120D44E4F575C3E575941074809F
:1005DB009480504DE574900DC275F023701EE57735
:1005EB001204C8E57675F023A42583F583E58225EF
:1005FB0075F582E43583F583E493801DE57712046A
:10060B00C8E57675F023A42583F583E5822575F57A
:10061B0082E43583F583E493F4FF120DA505758011
:10062B00A80577E57770020576C39411E5769400FB
:10063B00500302051B22851314120AD38F13AF1418
:10064B007E00EF64017007E5137003751501EF640D
:10065B00024E7007E5137003751502E51464037001
:10066B0007E5137003751503AF147E00EF64047078
:10067B0007E5137003751504EF64054E7007E5135A
:10068B007003751505E51464067007E513700375A3
:10069B001506AF147E00EF64077007E51370037542
:1006AB001507EF64084E7007E5137003751508E521
:1006BB001464097007E5137003751509AF147E00F8
:1006CB00EF640A7007E513700375150AEF640B4EA0
:1006DB007007E513700375150BE514640C7007E5D3
:1006EB0013700375150CAF147E00EF640D7007E5E6
:1006FB0013700375150DEF640E4E7007E513700341
:10070B0075150EE514640F7007E513700375150F5F
:10071B00E51464107007E5137003751510228F66CE
:10072B008D678B688A69896A786C7C007D007BFF9A
:10073B007A1579F27E007F0312044AAB68AA69A985
:10074B006A120470700302080930E75C056AE56AF7
:10075B007002056914F9120470F56C056AE56AAA52
:10076B00697002056914F9120470F56D7B007A004B
:10077B00796C856B74AD67AF6612050A74102566CC
:10078B00F566AB68AA69A96A12047030E70DC3E578
:10079B006694707480948040A28059C3E566947807
:1007AB00748094804095804CAB68056AE56AAA69B1
:1007BB007002056914F9120470FB856B72AD67AF9B
:1007CB006612080A74082566F566AB68AA69A96AF9
:1007DB0012047030E710C3E56694707480948050F7
:1007EB0003020746800EC3E56694787480948050AC
:1007FB000302074605670567E4F566020746228F85
:10080B006F8D70E4F573F574EB24E0F573D3EF940F
:10081B007F748094804007E4F56F05700570AD70B0
:10082B00AF6F120D44E4F574C3E5749408748094AF
:10083B00805046E57275F010701CE573A42574F5B5
:10084B0082E435F0F583E5822402F582E5833410EA
:10085B00F583E493801BE573A42574F582E435F0EE
:10086B00F583E5822402F582E5833410F583E49366
:10087B00F4FF120DA5057480AFE57004FDAF6F1288
:10088B000D44E4F574C3E574940874809480504669
:10089B00E57275F010701CE573A42574F582E435D0
:1008AB00F0F583E582240AF582E5833410F583E4C1
:1008BB0093801BE573A42574F582E435F0F583E58D
:1008CB0082240AF582E5833410F583E493F4FF1256
:1008DB000DA5057480AF22120D93C291D2927F6445
:1008EB007E00120003C2927F647E00120003D2923C
:1008FB007FAE120DA07F02120DA07F10120DA07FF4
:10090B0040120DA07F81120DA07FCF120DA07FA1F1
:10091B00120DA07FC8120DA07FA6120DA07FA812EA
:10092B000DA07F3F120DA07FD3120DA0E4FF120D7F
:10093B00A07FD5120DA07F80120DA07FD9120DA024
:10094B007FF1120DA07FDA120DA07F12120DA07F86
:10095B00DB120DA07F40120DA07F20120DA07F0295
:10096B00120DA07F8D120DA07F14120DA07FA4126B
:10097B000DA07FA6120DA07FAF120DA07FAF120DA1
:10098B00A0120C8FE4FDFF020D44E4F522F523F5D4
:10099B002478257C00FD7BFF7A167975FE7F071284
:1009AB00044A782C7C007D007BFF7A16797C7E00D4
:1009BB007F0712044AE4F5331208E2120D66120D9A
:1009CB00AA120D9A8F22E522600775F00F8485F02D
:1009DB0022E52465236006852324120C8FE524145D
:1009EB006024146038240270D8AF227E00EF640BB1
:1009FB0070021533EF640F4E70020533533301AFA2
:100A0B0033120BC180BB7BFF7A167965E4FD7F1037
:100A1B00120C2CE522640C70A8F52380A4E522604F
:100A2B0011B2C07BFF7A167971F5397D017F011206
:100A3B000C2CE522640C7089F5238085787FE4F615
:100A4B00D8FD75817F020A8E020995E493A3F8E421
:100A5B0093A34003F68001F208DFF48029E493A30B
:100A6B00F85407240CC8C333C4540F4420C8834024
:100A7B0004F456800146F6DFE4800B0102040810F3
:100A8B00204080900D7BE47E019360BCA3FF543F1C
:100A9B0030E509541FFEE493A360010ECF54C0252B
:100AAB00E060A840B8E493A3FAE493A3F8E493A31B
:100ABB00C8C582C8CAC583CAF0A3C8C582C8CAC57F
:100ACB0083CADFE9DEE780BEE4FFD280D281D28227
:100ADB00D283C28320C6027F0D20C5027F0E20A7C2
:100AEB00027F0F20A6027F10D280D281D282D283C6
:100AFB00C28220C6027F0920C5027F0A20A7027F7F
:100B0B000B20A6027F0CD280D281D282D283C281EB
:100B1B0020C6027F0520C5027F0620A7027F072083
:100B2B00A6027F08D280D281D282D283C28020C615
:100B3B00027F0120C5027F0220A7027F0320A602AD
:100B4B007F0422C0E0C0F0C083C082C0D075D0004B
:100B5B00C000C001C002C003C004C005C006C0076E
:100B6B00758A40758CA20510E5107002050F0512F1
:100B7B00E51270020511C3E510940AE50F940040CD
:100B8B0009750F00751000120641C3E51294F4E5C8
:100B9B001194014006751100751200D007D006D0D4
:100BAB0005D004D003D002D001D000D0D0D082D059
:100BBB0083D0F0D0E032EF1460320470637BFF7AA5
:100BCB0016790EE4FD7F20120C2C7BFF7A1679131D
:100BDB007D02E4FF120C2C7BFF7A1679217D04E455
:100BEB00FF120C2C7BFF7A16792D802D7BFF7A164A
:100BFB007939E4FD7F20120C2C7BFF7A16793F7D2F
:100C0B0002E4FF120C2C7BFF7A16794D7D04E4FF76
:100C1B00120C2C7BFF7A1679597D06E4FF120C2CF3
:100C2B00228F348D358B368A37893878487C007D16
:100C3B00007BFF7A1579F57E007F1912044A7561E6
:100C4B000075620075633985366685376785386848
:100C5B0085616985626A85636B7B007A00794812CE
:100C6B000CCB8E648F657561007562007563007BBC
:100C7B00007A007948E4F56BAD35AF34120729AE35
:100C8B0064AF6522E4F534C3E53494087480948032
:100C9B00502DE53424B0FF120DA07F02120DA07F62
:100CAB0010120DA0E4F535C3E53594807480948063
:100CBB005009E4FF120DA5053580EC053480C822E0
:100CCB0085666F856770856871EBC569FBEAC56AD8
:100CDB00FAE9C56BF97F097872120470F60809E915
:100CEB0070010ADFF4AB69AA6AA96B02007AEFB450
:100CFB000A07740D120D04740A309811A899B813D1
:100D0B000CC2983098FDA899C298B811F63099FD8D
:100D1B00C299F59922E4FEEEC39408748094805036
:100D2B0015C295EF30E704D2938002C293EF25E012
:100D3B00FFD2950E80E1C295228F78ED24B0FF1281
:100D4B000DA0E578240254F0C4540F4410FF120D8B
:100D5B00A0E5782402540FFF020DA0438E40538967
:100D6B000F758B40758DA2C28FD28ED2ABD2AF22B4
:100D7B0001150007081601101712000700ED24FFDC
:100D8B0092C7120D20D2C722C291D293C29522E4F0
:100D9B00AF15F51522E4FD020D887D01020D88C209
:100DAB00A2C2A422E5A4A940404242424242FE42D2
:100DBB004242424240400080804020100C0300031E
:100DCB000C102040808000E4B88080808080808080
:100DDB008080808080808080800000000000000088
:100DEB0000000000000000000000E4BA8C000008C6
:100DFB000808080808080808080800000010101068
:100E0B0010101010101010101010101000E4B889F2
:100E1B000004848484848484848484848404000013
:100E2B0020202020202020202020202020202000D7
:100E3B00E59B9B00FC040404FC040404FC04040474
:100E4B00FC0000007F2824232020202021222222A6
:100E5B007F0000E4BA940002424242C27E42424208
:100E6B0042C20202000040404040784740404040B0
:100E7B00407F40404000E585AD20202020202021F0
:100E8B00222C20202020202000004020100C0300CA
:100E9B00000001020418600000E5B9B4002018C777
:100EAB0044444444FC444444440400000404040704
:100EBB0004040404FF04040404040400E69C8800F6
:100ECB000000FE2222222222222222FE000000808B
:100EDB0040300F02020202020242827F000000E653
:100EEB0097A5000000FE82828282828282FE000031
:100EFB000000000000FF40404040404040FF000029
:100F0B000000E697B600FC848484FC0010101010DF
:100F1B0010FF101000003F1010103F0000010640A2
:100F2B00807F000000E58886804020908886808046
:100F3B0080838C10204080000080402018070040E8
:100F4B0080403F0000000000E7A7922424A4FE236A
:100F5B002200C03800FF0008106000080601FF01E6
:100F6B00068180404027100C030000E6989F00008C
:100F7B0000BE2A2A2AEA2A2A2A3E00000000004440
:100F8B0042494949497F4949494941400000E69C4A
:100F9B009F0004FF242424FF0400FE222222FE00D3
:100FAB000088482F090919AF48300F0242827F0091
:100FBB0000E6B8A91060028C0000FE929292929209
:100FCB00FE00000004047E01407E42427E427E42CF
:100FDB00427E4000E6B9BF1060028C00FE929292F6
:100FEB00929292FE00000004047E014448507F4020
:100FFB00407F50484440000000000000000000000B
:10100B0000000000000000000000F80000000000DD
:10101B000000333000000000100C06100C0600001E
:10102B000000000000000040C07840C07840000481
:10103B003F04043F040400007088FC0830000000EB
:10104B001820FF211E0000F008F000E0180000003F
:10105B00211C031E211E0000F00888700000001EDA
:10106B002123241927211010160E00000000000068
:10107B0000000000000000000000E0180402000067
:10108B000000071820400000020418E000000000D8
:10109B0040201807000000404080F08040400002D4
:1010AB0002010F01020200000000F000000000012D
:1010BB0001011F0101010000000000000000008081
:1010CB00B0700000000000000000000000000000F5
:1010DB0001010101010101000000000000000000FE
:1010EB003030000000000000000000806018040099
:1010FB006018060100000000E010080810E0000076
:10110B000F102020100F00001010F800000000003E
:10111B0020203F2020000000700808088870000085
:10112B003028242221300000300888884830000005
:10113B0018202020110E000000C02010F800000025
:10114B00070424243F240000F808888808080000BE
:10115B0019212020110E0000E010888818000000D3
:10116B000F112020110E0000380808C838080000A5
:10117B0000003F0000000000708808088870000025
:10118B001C222121221C0000E010080810E00000A6
:10119B0000312222110F00000000C0C0000000002F
:1011AB000000303000000000000080000000000054
:1011BB00008060000000000000804020100800004C
:1011CB000102040810200040404040404040000411
:1011DB0004040404040400000810204080000000F4
:1011EB0020100804020100007048080808F00000F5
:1011FB0000003036010000C030C828E810E00007BE
:10120B0018272423140B000000C038E00000002036
:10121B003C23020227382008F888888870000020B9
:10122B003F202020110E00C03008080808380007A6
:10123B001820202010080008F808080810E00020EB
:10124B003F202020100F0008F88888E808100020A5
:10125B003F20202320180008F88888E80810002079
:10126B003F200003000000C03008080838000007CA
:10127B00182020221E020008F808000008F8082099
:10128B003F210101213F20000808F8080800000059
:10129B0020203F2020000000000808F8080800C0AC
:1012AB008080807F00000008F888C0281808002084
:1012BB003F20012638200008F8080000000000201D
:1012CB003F20202020300008F8F800F8F808002014
:1012DB003F003F003F200008F830C00008F808200E
:1012EB003F200007183F00E01008080810E0000F2F
:1012FB0010202020100F0008F808080808F0002024
:10130B003F210101010000E01008080810E0000F68
:10131B0018242438504F0008F888888888700020DB
:10132B003F2000030C3020007088080808380000AC
:10133B0038202121221C00180808F8080818000082
:10134B0000203F2000000008F808000008F8080003
:10135B001F202020201F000878880000C8380800B4
:10136B000007380E010000F80800F80008F8000329
:10137B003C0700073C0300081868808068180820A9
:10138B00302C03032C30200838C800C83808000064
:10139B0000203F2000000010080808C83808002073
:1013AB0038262120201800000000FE020202000057
:1013BB0000007F40404000000C30C00000000000E7
:1013CB000000010638C00000020202FE000000000F
:1013DB004040407F000000000004020202040000B5
:1013EB000000000000000000000000000000008072
:1013FB00808080808080800002020400000000005A
:10140B0000000000000000000080808080000000D1
:10141B0019242222223F2008F800808000000000BF
:10142B003F112020110E0000000080808000000082
:10143B000E112020201100000000808088F8000091
:10144B000E112020103F20000080808080000000C3
:10145B001F222222221300008080F0888888180027
:10146B0020203F2020000000008080808080000032
:10147B006B94949493600008F800808080000020A7
:10148B003F210000203F20008098980000000000C2
:10149B0020203F20200000000000809898000000D2
:1014AB00C08080807F000008F800008080800020D2
:1014BB003F24022D302000000808F8000000000037
:1014CB0020203F20200000808080808080800020B2
:1014DB003F20003F20003F80800080808000002064
:1014EB003F210000203F2000008080808000000012
:1014FB001F202020201F00808000808000000080A3
:10150B00FFA12020110E00000000808080800000D1
:10151B000E112020A0FF8080808000808080002022
:10152B00203F21200001000000808080808000008F
:10153B0033242424241900008080E08080000000E4
:10154B0000001F2020000080800000008080000031
:10155B001F202020103F2080808000008080800092
:10156B00010E300806010080800080008080800F13
:10157B00300C030C300F0000808000808080000056
:10158B0020312E0E312000808080000080808080F2
:10159B00818E7018060100008080808080800000A2
:1015AB0021302C2221300000000000807C02020040
:1015BB00000000003F404000000000FF0000000062
:1015CB00000000FF0000000002027C800000000011
:1015DB0040403F000000000006010102020404002D
:1015EB0000000000000000000000000000000000F0
:1015FB0000000000000000000000000000000000E0
:10160B000000004D656E7500312E4368616E676595
:10161B002054696D6500322E53657420436C6F63E3
:10162B006B00332E53746F705761746368004D6594
:10163B006E753200342E4368616E67652054696D98
:10164B006500352E53657420436C6F636B00362E2B
:10165B0053746F705761746368004368616E67659C
:10166B002054696D650025626400000000000000D5
:08167B00000000000000000067
:00000001FF
